:040000008A11112828
:10000800FE00030EF6000408F7000A08F800831241
:1000180003137F08F9008A11B4288A111328F00104
:10002800F101F201F301F401831320308400393027
:100038008A11052283018A11F5298A113A218A1128
:10004800253083120313C6004608C9001B30C600BA
:100058004608CA000F30C6004608CB000130C6006B
:100068004608CC002E30C6004608CD009B2849081B
:10007800C6004608C10025308A11A0218A118316BE
:1000880003130C1683120313061086169B284A08BE
:10009800C6004608C10025308A11A0218A1183169E
:1000A80003130C168312031306149A284B08C60070
:1000B8004608C10025308A11A0218A11831603132E
:1000C8000C16023083120313C600460895079B28B6
:1000D8004C08C6004608C10025308A11A0218A11A3
:1000E800831603130C1602308312031395029B2800
:1000F8004D08C6004608C10025308A11A0218A1182
:10010800831603130C168312031306148616023083
:10011800C8008630C7009930C600C60B9128C70BA7
:100128009128C80B912883120313061086120130F8
:1001380020062104031D9B28A001A1012408413A9F
:1001480003195A28033A03194B28063A03196C284D
:10015800023A03193B28153A03197C289B289B2847
:100168008C1EC428831603138C1EC4288312031301
:100178001A08F5007508A4000130A0000030A1009D
:1001880083120C1EEA28831603130C1EEA28831216
:10019800031323082204031DD728F201F301831651
:1001A80003130C12EA287208253E84008313000802
:1001B800831299000130F2070318F30A0030F3079D
:1001C800FF30A2070318A30AFF30A3077908831298
:1001D800FF0078088A0077088400760E8300FE0EF8
:0401E8007E0E09007E
:1002000001308A000408840A8207003444346534CB
:1002100061346334633465346C3461347234613412
:10022000743465340A3400344134633463346534DF
:100230006C34613472346134743465340A3400349B
:100240004234613463346B347734613472346434EF
:100250000A34003446346F34723477346134723483
:1002600064340A340034433465346134733465349F
:100270000A3400340730831203139F0083160313DC
:100280009F01831203138501860120308316031317
:1002900085000630860024309800903083120313C6
:1002A00098001930831603139900831203139715CE
:1002B000171597101710FF30831603139200643040
:1002C00083120313950097121712831603138611D6
:1002D0007F30831203139200831603130C128C16C3
:1002E0000B178B17080083120313BD003908BC00DD
:1002F0003C08BF003D08BC003C08BE000130BA020B
:100300000030031CBB03BB02FF303B06031D8A29E0
:10031000FF303A06031908003F0884008A110021C3
:100320008A11BC003E0884003C0883138000013021
:10033000BC003C08BF070130BC003C08BE077E295A
:1003400083120313C50023082204031D08008B1326
:1003500041088A11CB218A11831203133A08C40180
:10036000C4073908C301C3074108C2004208B900E5
:100370004408BB01BB074308BA01BA0745088A1104
:100380007321831203134408A301A3074308A201A6
:10039000A2078B17080083120313BF003F08BB009E
:1003A0003B08C000400884008A1100218A110038EF
:1003B0000319DF290130BB003B08C007D2293F08E1
:1003C000BB008030BC00BB09BC09BB0A0319BC0AD6
:1003D0004008BD008030BE003B083D07B9003C0826
:1003E00003183C0A3E07BA000800083083160313BE
:1003F0008E0083120313850107309F0083160313B9
:1004000085018A1121208A11112864008001840A43
:0A0410000406031900340406062A4E
:02400E0018FF99
:00000001FF
